{"abi":[{"type":"constructor","inputs":[],"stateMutability":"nonpayable"},{"type":"function","name":"approve","inputs":[{"name":"to","type":"address","internalType":"address"},{"name":"tokenId","type":"uint256","internalType":"uint256"}],"outputs":[],"stateMutability":"nonpayable"},{"type":"function","name":"balanceOf","inputs":[{"name":"owner","type":"address","internalType":"address"}],"outputs":[{"name":"","type":"uint256","internalType":"uint256"}],"stateMutability":"view"},{"type":"function","name":"getApproved","inputs":[{"name":"tokenId","type":"uint256","internalType":"uint256"}],"outputs":[{"name":"","type":"address","internalType":"address"}],"stateMutability":"view"},{"type":"function","name":"isApprovedForAll","inputs":[{"name":"owner","type":"address","internalType":"address"},{"name":"operator","type":"address","internalType":"address"}],"outputs":[{"name":"","type":"bool","internalType":"bool"}],"stateMutability":"view"},{"type":"function","name":"name","inputs":[],"outputs":[{"name":"","type":"string","internalType":"string"}],"stateMutability":"view"},{"type":"function","name":"nextTokenId","inputs":[],"outputs":[{"name":"","type":"uint256","internalType":"uint256"}],"stateMutability":"view"},{"type":"function","name":"owner","inputs":[],"outputs":[{"name":"","type":"address","internalType":"address"}],"stateMutability":"view"},{"type":"function","name":"ownerOf","inputs":[{"name":"tokenId","type":"uint256","internalType":"uint256"}],"outputs":[{"name":"","type":"address","internalType":"address"}],"stateMutability":"view"},{"type":"function","name":"properties","inputs":[{"name":"","type":"uint256","internalType":"uint256"}],"outputs":[{"name":"urlPhoto","type":"string","internalType":"string"},{"name":"locationAddress","type":"string","internalType":"string"},{"name":"buildingArea","type":"uint32","internalType":"uint32"},{"name":"landArea","type":"uint32","internalType":"uint32"},{"name":"postalCode","type":"string","internalType":"string"},{"name":"city","type":"string","internalType":"string"},{"name":"province","type":"string","internalType":"string"},{"name":"nib","type":"string","internalType":"string"},{"name":"sertificateNumber","type":"string","internalType":"string"},{"name":"subdistrict","type":"string","internalType":"string"}],"stateMutability":"view"},{"type":"function","name":"registerProperty","inputs":[{"name":"params","type":"tuple","internalType":"struct OwnerPropertyToken.RegisterPropertyParams","components":[{"name":"urlPhoto","type":"string","internalType":"string"},{"name":"locationAddress","type":"string","internalType":"string"},{"name":"buildingArea","type":"uint32","internalType":"uint32"},{"name":"landArea","type":"uint32","internalType":"uint32"},{"name":"postalCode","type":"string","internalType":"string"},{"name":"city","type":"string","internalType":"string"},{"name":"province","type":"string","internalType":"string"},{"name":"nib","type":"string","internalType":"string"},{"name":"sertificateNumber","type":"string","internalType":"string"},{"name":"subdistrict","type":"string","internalType":"string"}]}],"outputs":[],"stateMutability":"nonpayable"},{"type":"function","name":"renounceOwnership","inputs":[],"outputs":[],"stateMutability":"nonpayable"},{"type":"function","name":"safeTransferFrom","inputs":[{"name":"from","type":"address","internalType":"address"},{"name":"to","type":"address","internalType":"address"},{"name":"tokenId","type":"uint256","internalType":"uint256"}],"outputs":[],"stateMutability":"nonpayable"},{"type":"function","name":"safeTransferFrom","inputs":[{"name":"from","type":"address","internalType":"address"},{"name":"to","type":"address","internalType":"address"},{"name":"tokenId","type":"uint256","internalType":"uint256"},{"name":"data","type":"bytes","internalType":"bytes"}],"outputs":[],"stateMutability":"nonpayable"},{"type":"function","name":"setApprovalForAll","inputs":[{"name":"operator","type":"address","internalType":"address"},{"name":"approved","type":"bool","internalType":"bool"}],"outputs":[],"stateMutability":"nonpayable"},{"type":"function","name":"supportsInterface","inputs":[{"name":"interfaceId","type":"bytes4","internalType":"bytes4"}],"outputs":[{"name":"","type":"bool","internalType":"bool"}],"stateMutability":"view"},{"type":"function","name":"symbol","inputs":[],"outputs":[{"name":"","type":"string","internalType":"string"}],"stateMutability":"view"},{"type":"function","name":"tokenURI","inputs":[{"name":"tokenId","type":"uint256","internalType":"uint256"}],"outputs":[{"name":"","type":"string","internalType":"string"}],"stateMutability":"view"},{"type":"function","name":"transferFrom","inputs":[{"name":"from","type":"address","internalType":"address"},{"name":"to","type":"address","internalType":"address"},{"name":"tokenId","type":"uint256","internalType":"uint256"}],"outputs":[],"stateMutability":"nonpayable"},{"type":"function","name":"transferOwnership","inputs":[{"name":"newOwner","type":"address","internalType":"address"}],"outputs":[],"stateMutability":"nonpayable"},{"type":"event","name":"Approval","inputs":[{"name":"owner","type":"address","indexed":true,"internalType":"address"},{"name":"approved","type":"address","indexed":true,"internalType":"address"},{"name":"tokenId","type":"uint256","indexed":true,"internalType":"uint256"}],"anonymous":false},{"type":"event","name":"ApprovalForAll","inputs":[{"name":"owner","type":"address","indexed":true,"internalType":"address"},{"name":"operator","type":"address","indexed":true,"internalType":"address"},{"name":"approved","type":"bool","indexed":false,"internalType":"bool"}],"anonymous":false},{"type":"event","name":"OwnershipTransferred","inputs":[{"name":"previousOwner","type":"address","indexed":true,"internalType":"address"},{"name":"newOwner","type":"address","indexed":true,"internalType":"address"}],"anonymous":false},{"type":"event","name":"PropertyRegistered","inputs":[{"name":"tokenId","type":"uint256","indexed":true,"internalType":"uint256"},{"name":"owner","type":"address","indexed":true,"internalType":"address"}],"anonymous":false},{"type":"event","name":"Transfer","inputs":[{"name":"from","type":"address","indexed":true,"internalType":"address"},{"name":"to","type":"address","indexed":true,"internalType":"address"},{"name":"tokenId","type":"uint256","indexed":true,"internalType":"uint256"}],"anonymous":false},{"type":"error","name":"ERC721IncorrectOwner","inputs":[{"name":"sender","type":"address","internalType":"address"},{"name":"tokenId","type":"uint256","internalType":"uint256"},{"name":"owner","type":"address","internalType":"address"}]},{"type":"error","name":"ERC721InsufficientApproval","inputs":[{"name":"operator","type":"address","internalType":"address"},{"name":"tokenId","type":"uint256","internalType":"uint256"}]},{"type":"error","name":"ERC721InvalidApprover","inputs":[{"name":"approver","type":"address","internalType":"address"}]},{"type":"error","name":"ERC721InvalidOperator","inputs":[{"name":"operator","type":"address","internalType":"address"}]},{"type":"error","name":"ERC721InvalidOwner","inputs":[{"name":"owner","type":"address","internalType":"address"}]},{"type":"error","name":"ERC721InvalidReceiver","inputs":[{"name":"receiver","type":"address","internalType":"address"}]},{"type":"error","name":"ERC721InvalidSender","inputs":[{"name":"sender","type":"address","internalType":"address"}]},{"type":"error","name":"ERC721NonexistentToken","inputs":[{"name":"tokenId","type":"uint256","internalType":"uint256"}]},{"type":"error","name":"OwnableInvalidOwner","inputs":[{"name":"owner","type":"address","internalType":"address"}]},{"type":"error","name":"OwnableUnauthorizedAccount","inputs":[{"name":"account","type":"address","internalType":"address"}]},{"type":"error","name":"RegisterYourIdentityFirst","inputs":[]}],"bytecode":{"object":"0x60806040523461038a57604080519081016001600160401b03811182821017610297576040908152600d82526c283937b832b93a3caa37b5b2b760991b602083015280519081016001600160401b03811182821017610297576040526004815263282a25a760e11b602082015281516001600160401b03811161029757600054600181811c91168015610380575b602082101461027757601f811161031c575b50602092601f82116001146102b857928192936000926102ad575b50508160011b916000199060031b1c1916176000555b80516001600160401b03811161029757600154600181811c9116801561028d575b602082101461027757601f8111610212575b50602091601f82116001146101ae579181926000926101a3575b50508160011b916000199060031b1c1916176001555b331561018d5760068054336001600160a01b03198216811790925560405191906001600160a01b03167f8be0079c531659141344cd1fd0a4f28419497f9722a3daafe3b4186f6b6457e0600080a3611c8590816103908239f35b631e4fbdf760e01b600052600060045260246000fd5b01519050388061011d565b601f198216926001600052806000209160005b8581106101fa575083600195106101e1575b505050811b01600155610133565b015160001960f88460031b161c191690553880806101d3565b919260206001819286850151815501940192016101c1565b60016000527fb10e2d527612073b26eecdfd717e6a320cf44b4afac2b0732d9fcbe2b7fa0cf6601f830160051c8101916020841061026d575b601f0160051c01905b8181106102615750610103565b60008155600101610254565b909150819061024b565b634e487b7160e01b600052602260045260246000fd5b90607f16906100f1565b634e487b7160e01b600052604160045260246000fd5b0151905038806100ba565b601f1982169360008052806000209160005b86811061030457508360019596106102eb575b505050811b016000556100d0565b015160001960f88460031b161c191690553880806102dd565b919260206001819286850151815501940192016102ca565b600080527f290decd9548b62a8d60345a988386fc84ba6bc95484008f6362f93160ef3e563601f830160051c81019160208410610376575b601f0160051c01905b81811061036a575061009f565b6000815560010161035d565b9091508190610354565b90607f169061008d565b600080fdfe61014080604052600436101561001457600080fd5b600090813560e01c90816301ffc9a71461165a5750806306fdde03146115d2578063081812fc14611595578063095ea7b3146114ad57806323b872dd1461149557806342842e0e146114655780636352211e1461143457806370a08231146113e1578063715018a61461138457806375794a3c146113665780638da5cb5b1461133d57806395d89b411461125a578063a22cb465146111b8578063b88d4fde14611146578063c87b56dd146110ee578063e985e9c514611094578063f2fde38b1461100a578063f7b1080814610ed15763f8079ac0146100f357600080fd5b346107c75760203660031901126107c757600435906001600160401b0382116107c7578160040161014060031984360301126107ca576007546080526101398180611a70565b90610120526101246101c66101516024870185611a70565b9661015e60448201611aa2565b9561016b60648301611aa2565b60c05261017b6084830182611a70565b61018b60a4859c939c0184611a70565b9b909161019b60c4870186611a70565b9790946101ab60e4890188611a70565b9a90976101bc6101048b0182611a70565b9d909a0190611a70565b60e0529b6040516101005261014061010051016101005181106001600160401b03821117610ebb57604052366101205191610200926117af565b61010051523690610210926117af565b6101005160200152610100516040019a63ffffffff168b526101005160600160a05260c05163ffffffff1660a05152369061024a926117af565b9a610100516080019b8c523690610260926117af565b936101005160a0019485523690610276926117af565b936101005160c001948552369061028c926117af565b936101005160e00194855236906102a2926117af565b9361010051610100019485523660e0516102bb926117af565b96610100516101200197885260805187526008602052604087209561010051518051906001600160401b038211610ea75781906102f88a546117e6565b601f8111610e57575b50602090601f8311600114610df4578b92610de9575b50508160011b916000199060031b1c19161787555b6001870160206101005101518051906001600160401b038211610dd557819061035584546117e6565b601f8111610d85575b50602090601f8311600114610d22578c92610d17575b50508160011b916000199060031b1c19161790555b63ffffffff6002880191511681549067ffffffff0000000060a0515160201b16916001600160401b031916171790556003860190518051906001600160401b038211610d035781906103db84546117e6565b601f8111610cb3575b50602090601f8311600114610c50578a92610c45575b50508160011b916000199060031b1c19161790555b51805160048601916001600160401b038211610c3157819061043184546117e6565b601f8111610be1575b50602090601f8311600114610b7e578992610b73575b50508160011b916000199060031b1c19161790555b51805160058501916001600160401b038211610b5f57819061048784546117e6565b601f8111610b0f575b50602090601f8311600114610aac578892610aa1575b50508160011b916000199060031b1c19161790555b51805160068401916001600160401b038211610a8d5781906104dd84546117e6565b601f8111610a3d575b50602090601f83116001146109da5787926109cf575b50508160011b916000199060031b1c19161790555b51805160078301916001600160401b0382116109bb5761053183546117e6565b601f8111610976575b50602090601f831160011461090f57600894939291869183610904575b50508160011b916000199060031b1c19161790555b0191519182516001600160401b0381116108f05761058a82546117e6565b601f81116108ab575b506020601f821160011461084a5783948293949261083f575b50508160011b916000199060031b1c19161790555b6020906040516105d18382611773565b818152331561082b5760805160009081526002845260408120546001600160a01b031680151591826107e9575b33808252600387526040808320805460010190556080805184526002895290832080546001600160a01b03191683179055519183907fddf252ad1be2c89b69c2b068fc378daa952ba7f163c4a11628f55a4df523b3ef9080a4506107d557333b6106b7575b50905060075460001981146106a357600101600755336080517ff16e2a0ca5373d3b3c5e53640bf2953ea25184f229ba20d421b5fc6a635e39458380a380f35b634e487b7160e01b82526011600452602482fd5b826106f39160405180938192630a85bd0160e11b83523360048401526000602484015260805160448401526080606484015260848301906116c7565b03816000335af18091600091610790575b509061075a57823d15610753573d61071b81611794565b906107296040519283611773565b81523d60008383013e5b8051918261075057633250574960e11b6000523360045260246000fd5b01fd5b6060610733565b9091506001600160e01b03191663757a42ff60e11b0161077b578038610663565b633250574960e11b6000523360045260246000fd5b8481813d83116107ce575b6107a58183611773565b810103126107ca5751906001600160e01b0319821682036107c7575038610704565b80fd5b5080fd5b503d61079b565b6339e3563760e11b82526004829052602482fd5b610813608051600052600460205260406000206bffffffffffffffffffffffff60a01b8154169055565b818152600386526040812080546000190190556105fe565b633250574960e11b82526004829052602482fd5b0151905038806105ac565b82845280842090601f198316855b8181106108935750958360019596971061087a575b505050811b0190556105c1565b015160001960f88460031b161c1916905538808061086d565b9192602060018192868b015181550194019201610858565b82845260208420601f830160051c810191602084106108e6575b601f0160051c01905b8181106108db5750610593565b8481556001016108ce565b90915081906108c5565b634e487b7160e01b83526041600452602483fd5b015190503880610557565b8386528186209190601f198416875b81811061095e575091600193918560089897969410610945575b505050811b01905561056c565b015160001960f88460031b161c19169055388080610938565b9293602060018192878601518155019501930161091e565b83865260208620601f840160051c810191602085106109b1575b601f0160051c01905b8181106109a6575061053a565b868155600101610999565b9091508190610990565b634e487b7160e01b85526041600452602485fd5b0151905038806104fc565b8488528188209250601f198416885b818110610a255750908460019594939210610a0c575b505050811b019055610511565b015160001960f88460031b161c191690553880806109ff565b929360206001819287860151815501950193016109e9565b90915083875260208720601f840160051c81019160208510610a83575b90601f859493920160051c01905b818110610a7557506104e6565b888155849350600101610a68565b9091508190610a5a565b634e487b7160e01b86526041600452602486fd5b0151905038806104a6565b8489528189209250601f198416895b818110610af75750908460019594939210610ade575b505050811b0190556104bb565b015160001960f88460031b161c19169055388080610ad1565b92936020600181928786015181550195019301610abb565b90915083885260208820601f840160051c81019160208510610b55575b90601f859493920160051c01905b818110610b475750610490565b898155849350600101610b3a565b9091508190610b2c565b634e487b7160e01b87526041600452602487fd5b015190503880610450565b848a52818a209250601f1984168a5b818110610bc95750908460019594939210610bb0575b505050811b019055610465565b015160001960f88460031b161c19169055388080610ba3565b92936020600181928786015181550195019301610b8d565b90915083895260208920601f840160051c81019160208510610c27575b90601f859493920160051c01905b818110610c19575061043a565b8a8155849350600101610c0c565b9091508190610bfe565b634e487b7160e01b88526041600452602488fd5b0151905038806103fa565b848b52818b209250601f1984168b5b818110610c9b5750908460019594939210610c82575b505050811b01905561040f565b015160001960f88460031b161c19169055388080610c75565b92936020600181928786015181550195019301610c5f565b909150838a5260208a20601f840160051c81019160208510610cf9575b90601f859493920160051c01905b818110610ceb57506103e4565b8b8155849350600101610cde565b9091508190610cd0565b634e487b7160e01b89526041600452602489fd5b015190503880610374565b848d52818d209250601f1984168d5b818110610d6d5750908460019594939210610d54575b505050811b019055610389565b015160001960f88460031b161c19169055388080610d47565b92936020600181928786015181550195019301610d31565b909150838c5260208c20601f840160051c81019160208510610dcb575b90601f859493920160051c01905b818110610dbd575061035e565b8d8155849350600101610db0565b9091508190610da2565b634e487b7160e01b8b52604160045260248bfd5b015190503880610317565b8a8c52818c209250601f1984168c5b818110610e3f5750908460019594939210610e26575b505050811b01875561032c565b015160001960f88460031b161c19169055388080610e19565b92936020600181928786015181550195019301610e03565b909150898b5260208b20601f840160051c81019160208510610e9d575b90601f859493920160051c01905b818110610e8f5750610301565b8c8155849350600101610e82565b9091508190610e74565b634e487b7160e01b8a52604160045260248afd5b634e487b7160e01b600052604160045260246000fd5b50346107c75760203660031901126107c7576004358152600860205260409020610efa81611820565b610f0660018301611820565b60028301549092610f1960038201611820565b610f2560048301611820565b610f3160058401611820565b90610f3e60068501611820565b92610f4b60078601611820565b94600801610f5890611820565b956040519889986101408a526101408a01610f72916116c7565b89810360208b0152610f83916116c7565b9063ffffffff811660408a015260201c63ffffffff1660608901528781036080890152610faf916116c7565b86810360a0880152610fc0916116c7565b85810360c0870152610fd1916116c7565b84810360e0860152610fe2916116c7565b838103610100850152610ff4916116c7565b828103610120840152611006916116c7565b0390f35b50346107c75760203660031901126107c757611024611708565b61102c611aea565b6001600160a01b0316801561108057600680546001600160a01b0319811683179091556001600160a01b03167f8be0079c531659141344cd1fd0a4f28419497f9722a3daafe3b4186f6b6457e0600080a380f35b631e4fbdf760e01b82526004829052602482fd5b50346107c75760403660031901126107c75760406110b0611708565b916110b9611723565b9260018060a01b031681526005602052209060018060a01b0316600052602052602060ff604060002054166040519015158152f35b50346107c75760203660031901126107c75761110b600435611ab3565b508060405161111b602082611773565b525061100660405161112e602082611773565b600081526040519182916020835260208301906116c7565b50346107c75760803660031901126107c757611160611708565b611168611723565b90604435606435926001600160401b0384116111b457366023850112156111b4576111a06111b19436906024816004013591016117af565b926111ac8383836118c4565b611b13565b80f35b8480fd5b50346107c75760403660031901126107c7576111d2611708565b60243590811515809203611256576001600160a01b0316908115611242573383526005602052604083208284526020526040832060ff1981541660ff83161790556040519081527f17307eab39ab6107e8899845ad3d59bd9653f200f220920489ca2b5937696c3160203392a380f35b630b61174360e31b83526004829052602483fd5b8280fd5b50346107c757806003193601126107c75760405190806001549061127d826117e6565b808552916001811690811561131657506001146112b9575b611006846112a581860382611773565b6040519182916020835260208301906116c7565b600181527fb10e2d527612073b26eecdfd717e6a320cf44b4afac2b0732d9fcbe2b7fa0cf6939250905b8082106112fc575090915081016020016112a582611295565b9192600181602092548385880101520191019092916112e3565b60ff191660208087019190915292151560051b850190920192506112a59150839050611295565b50346107c757806003193601126107c7576006546040516001600160a01b039091168152602090f35b50346107c757806003193601126107c7576020600754604051908152f35b50346107c757806003193601126107c75761139d611aea565b600680546001600160a01b0319811690915581906001600160a01b03167f8be0079c531659141344cd1fd0a4f28419497f9722a3daafe3b4186f6b6457e08280a380f35b50346107c75760203660031901126107c7576001600160a01b03611403611708565b168015611420578160409160209352600383522054604051908152f35b6322718ad960e21b82526004829052602482fd5b50346107c75760203660031901126107c7576020611453600435611ab3565b6040516001600160a01b039091168152f35b50346107c7576111b161147736611739565b9060405192611487602085611773565b8584526111ac8383836118c4565b50346107c7576111b16114a736611739565b916118c4565b50346107c75760403660031901126107c7576114c7611708565b6024356114d381611ab3565b33151580611582575b80611557575b6115445781906001600160a01b0384811691167f8c5be1e5ebec7d5bd14f71427d1e84f3dd0314c0f7b2291e5b200ac8c7c3b9258680a4825260046020526040822080546001600160a01b0319166001600160a01b0390921691909117905580f35b63a9fbf51f60e01b845233600452602484fd5b506001600160a01b038116845260056020908152604080862033875290915284205460ff16156114e2565b506001600160a01b0381163314156114dc565b50346107c75760203660031901126107c7576020906004356115b681611ab3565b50815260048252604060018060a01b0391205416604051908152f35b50346107c757806003193601126107c75760405190808054906115f4826117e6565b8085529160018116908115611316575060011461161b57611006846112a581860382611773565b80805260208120939250905b808210611640575090915081016020016112a582611295565b919260018160209254838588010152019101909291611627565b9050346107ca5760203660031901126107ca5760043563ffffffff60e01b811680910361125657602092506380ac58cd60e01b81149081156116b6575b81156116a5575b5015158152f35b6301ffc9a760e01b1490503861169e565b635b5e139f60e01b81149150611697565b919082519283825260005b8481106116f3575050826000602080949584010152601f8019910116010190565b806020809284010151828286010152016116d2565b600435906001600160a01b038216820361171e57565b600080fd5b602435906001600160a01b038216820361171e57565b606090600319011261171e576004356001600160a01b038116810361171e57906024356001600160a01b038116810361171e579060443590565b90601f801991011681019081106001600160401b03821117610ebb57604052565b6001600160401b038111610ebb57601f01601f191660200190565b9291926117bb82611794565b916117c96040519384611773565b82948184528183011161171e578281602093846000960137010152565b90600182811c92168015611816575b602083101461180057565b634e487b7160e01b600052602260045260246000fd5b91607f16916117f5565b9060405191826000825492611834846117e6565b80845293600181169081156118a2575060011461185b575b5061185992500383611773565b565b90506000929192526020600020906000915b818310611886575050906020611859928201013861184c565b602091935080600191548385890101520191019091849261186d565b90506020925061185994915060ff191682840152151560051b8201013861184c565b6001600160a01b0390911691908215611a5a576000828152600260205260408120546001600160a01b03169383918590331515806119c2575b507fddf252ad1be2c89b69c2b068fc378daa952ba7f163c4a11628f55a4df523b3ef908261198d575b83815260036020526040812060018154019055848152600260205260408120846bffffffffffffffffffffffff60a01b82541617905580a46001600160a01b031680830361197357505050565b6364283d7b60e01b60005260045260245260445260646000fd5b600085815260046020526040902080546001600160a01b03191690558281526003602052604081208054600019019055611926565b915091925080611a0b575b156119dc5790848492386118fd565b8390856119f557602491637e27328960e01b8252600452fd5b60449163177e802f60e01b825233600452602452fd5b503385148015611a39575b806119cd5750838152600460205260408120546001600160a01b031633146119cd565b5084815260056020908152604080832033845290915281205460ff16611a16565b633250574960e11b600052600060045260246000fd5b903590601e198136030182121561171e57018035906001600160401b03821161171e5760200191813603831361171e57565b3563ffffffff8116810361171e5790565b6000818152600260205260409020546001600160a01b0316908115611ad6575090565b637e27328960e01b60005260045260246000fd5b6006546001600160a01b03163303611afe57565b63118cdaa760e01b6000523360045260246000fd5b9291813b611b22575b50505050565b604051630a85bd0160e11b81523360048201526001600160a01b0394851660248201526044810191909152608060648201529216919060209082908190611b6d9060848301906116c7565b03816000865af18091600091611c0c575b5090611bd757503d15611bd0573d611b9581611794565b90611ba36040519283611773565b81523d6000602083013e5b80519081611bcb5782633250574960e11b60005260045260246000fd5b602001fd5b6060611bae565b6001600160e01b03191663757a42ff60e11b01611bf8575038808080611b1c565b633250574960e11b60005260045260246000fd5b6020813d602011611c47575b81611c2560209383611773565b810103126107ca5751906001600160e01b0319821682036107c7575038611b7e565b3d9150611c1856fea2646970667358221220f20c003c1bb5f0c169ff95801986aa660f5402492e2fa69667255a53f4c1eb5464736f6c634300081a0033","linkReferences":{}},"methodIdentifiers":{"approve(address,uint256)":"095ea7b3","balanceOf(address)":"70a08231","getApproved(uint256)":"081812fc","isApprovedForAll(address,address)":"e985e9c5","name()":"06fdde03","nextTokenId()":"75794a3c","owner()":"8da5cb5b","ownerOf(uint256)":"6352211e","properties(uint256)":"f7b10808","registerProperty((string,string,uint32,uint32,string,string,string,string,string,string))":"f8079ac0","renounceOwnership()":"715018a6","safeTransferFrom(address,address,uint256)":"42842e0e","safeTransferFrom(address,address,uint256,bytes)":"b88d4fde","setApprovalForAll(address,bool)":"a22cb465","supportsInterface(bytes4)":"01ffc9a7","symbol()":"95d89b41","tokenURI(uint256)":"c87b56dd","transferFrom(address,address,uint256)":"23b872dd","transferOwnership(address)":"f2fde38b"},"id":48}