{"abi":[{"type":"function","name":"approve","inputs":[{"name":"spender","type":"address","internalType":"address"},{"name":"id","type":"uint256","internalType":"uint256"}],"outputs":[],"stateMutability":"payable"},{"type":"function","name":"balanceOf","inputs":[{"name":"owner","type":"address","internalType":"address"}],"outputs":[{"name":"","type":"uint256","internalType":"uint256"}],"stateMutability":"view"},{"type":"function","name":"getApproved","inputs":[{"name":"id","type":"uint256","internalType":"uint256"}],"outputs":[{"name":"","type":"address","internalType":"address"}],"stateMutability":"view"},{"type":"function","name":"initialize","inputs":[{"name":"name_","type":"string","internalType":"string"},{"name":"symbol_","type":"string","internalType":"string"}],"outputs":[],"stateMutability":"nonpayable"},{"type":"function","name":"isApprovedForAll","inputs":[{"name":"owner","type":"address","internalType":"address"},{"name":"operator","type":"address","internalType":"address"}],"outputs":[{"name":"","type":"bool","internalType":"bool"}],"stateMutability":"view"},{"type":"function","name":"name","inputs":[],"outputs":[{"name":"","type":"string","internalType":"string"}],"stateMutability":"view"},{"type":"function","name":"ownerOf","inputs":[{"name":"id","type":"uint256","internalType":"uint256"}],"outputs":[{"name":"owner","type":"address","internalType":"address"}],"stateMutability":"view"},{"type":"function","name":"safeTransferFrom","inputs":[{"name":"from","type":"address","internalType":"address"},{"name":"to","type":"address","internalType":"address"},{"name":"id","type":"uint256","internalType":"uint256"}],"outputs":[],"stateMutability":"payable"},{"type":"function","name":"safeTransferFrom","inputs":[{"name":"from","type":"address","internalType":"address"},{"name":"to","type":"address","internalType":"address"},{"name":"id","type":"uint256","internalType":"uint256"},{"name":"data","type":"bytes","internalType":"bytes"}],"outputs":[],"stateMutability":"payable"},{"type":"function","name":"setApprovalForAll","inputs":[{"name":"operator","type":"address","internalType":"address"},{"name":"approved","type":"bool","internalType":"bool"}],"outputs":[],"stateMutability":"nonpayable"},{"type":"function","name":"supportsInterface","inputs":[{"name":"interfaceId","type":"bytes4","internalType":"bytes4"}],"outputs":[{"name":"","type":"bool","internalType":"bool"}],"stateMutability":"view"},{"type":"function","name":"symbol","inputs":[],"outputs":[{"name":"","type":"string","internalType":"string"}],"stateMutability":"view"},{"type":"function","name":"tokenURI","inputs":[{"name":"id","type":"uint256","internalType":"uint256"}],"outputs":[{"name":"","type":"string","internalType":"string"}],"stateMutability":"view"},{"type":"function","name":"transferFrom","inputs":[{"name":"from","type":"address","internalType":"address"},{"name":"to","type":"address","internalType":"address"},{"name":"id","type":"uint256","internalType":"uint256"}],"outputs":[],"stateMutability":"payable"},{"type":"event","name":"Approval","inputs":[{"name":"_owner","type":"address","indexed":true,"internalType":"address"},{"name":"_approved","type":"address","indexed":true,"internalType":"address"},{"name":"_tokenId","type":"uint256","indexed":true,"internalType":"uint256"}],"anonymous":false},{"type":"event","name":"ApprovalForAll","inputs":[{"name":"_owner","type":"address","indexed":true,"internalType":"address"},{"name":"_operator","type":"address","indexed":true,"internalType":"address"},{"name":"_approved","type":"bool","indexed":false,"internalType":"bool"}],"anonymous":false},{"type":"event","name":"Transfer","inputs":[{"name":"_from","type":"address","indexed":true,"internalType":"address"},{"name":"_to","type":"address","indexed":true,"internalType":"address"},{"name":"_tokenId","type":"uint256","indexed":true,"internalType":"uint256"}],"anonymous":false}],"bytecode":{"object":"0x60808060405234601557610eff908161001b8239f35b600080fdfe608080604052600436101561001357600080fd5b60003560e01c90816301ffc9a714610a595750806306fdde03146109c6578063081812fc14610992578063095ea7b3146108d857806323b872dd146108c657806342842e0e146108055780634cd88b76146104d25780636352211e1461046357806370a08231146103ef57806395d89b411461031b578063a22cb4651461028e578063b88d4fde1461015b578063c87b56dd146101195763e985e9c5146100b957600080fd5b34610114576040366003190112610114576100d2610b0c565b6100da610b22565b9060018060a01b0316600052600560205260406000209060018060a01b0316600052602052602060ff604060002054166040519015158152f35b600080fd5b34610114576020366003190112610114576040516020815260208181606051808284015261014c81604085016080610ac4565b601f01601f1916820101030190f35b60803660031901126101145761016f610b0c565b610177610b22565b6044359060643567ffffffffffffffff81116101145736602382011215610114576101ac903690602481600401359101610b94565b906101b8838286610c70565b803b159283156101ce575b6101cc84610e4a565b005b604051630a85bd0160e11b81523360048201526001600160a01b03909516602486015260448501526080606485015260209250839182906000908290610218906084830190610ae7565b03926001600160a01b03165af18015610282576101cc91600091610253575b506001600160e01b031916630a85bd0160e11b148280806101c3565b610275915060203d60201161027b575b61026d8183610b72565b810190610e2a565b82610237565b503d610263565b6040513d6000823e3d90fd5b34610114576040366003190112610114576102a7610b0c565b6024359081151580920361011457336000526005602052604060002060018060a01b038216600052602052604060002060ff1981541660ff841617905560405191825260018060a01b0316907f17307eab39ab6107e8899845ad3d59bd9653f200f220920489ca2b5937696c3160203392a3005b3461011457600036600319011261011457604051600060015461033d81610bf9565b80845290600181169081156103cb575060011461037d575b6103798361036581850382610b72565b604051918291602083526020830190610ae7565b0390f35b9190506001600052600080516020610eaa833981519152916000905b8082106103b157509091508101602001610365610355565b919260018160209254838588010152019101909291610399565b60ff191660208086019190915291151560051b840190910191506103659050610355565b34610114576020366003190112610114576001600160a01b03610410610b0c565b16801561042f5760005260036020526020604060002054604051908152f35b60405162461bcd60e51b815260206004820152600c60248201526b5a45524f5f4144445245535360a01b6044820152606490fd5b34610114576020366003190112610114576004356000908152600260205260409020546001600160a01b031680156104a057602090604051908152f35b60405162461bcd60e51b815260206004820152600a6024820152691393d517d3525395115160b21b6044820152606490fd5b346101145760403660031901126101145760043567ffffffffffffffff811161011457610503903690600401610bdb565b60243567ffffffffffffffff811161011457610523903690600401610bdb565b60ff600654166107ca57815167ffffffffffffffff81116106ce57610549600054610bf9565b601f811161075e575b50602092601f82116001146106ef57928192936000926106e4575b50508160011b916000199060031b1c1916176000555b805167ffffffffffffffff81116106ce5761059f600154610bf9565b601f8111610661575b50602091601f82116001146105f2579181926000926105e7575b50508160011b916000199060031b1c1916176001555b6006805460ff19166001179055005b0151905082806105c2565b601f198216926001600052600080516020610eaa8339815191529160005b85811061064957508360019510610630575b505050811b016001556105d8565b015160001960f88460031b161c19169055828080610622565b91926020600181928685015181550194019201610610565b6001600052601f820160051c600080516020610eaa8339815191520190602083106106b8575b601f0160051c600080516020610eaa83398151915201905b8181106106ac57506105a8565b6000815560010161069f565b600080516020610eaa8339815191529150610687565b634e487b7160e01b600052604160045260246000fd5b01519050838061056d565b601f1982169360008052600080516020610e8a8339815191529160005b868110610746575083600195961061072d575b505050811b01600055610583565b015160001960f88460031b161c1916905583808061071f565b9192602060018192868501518155019401920161070c565b60008052601f820160051c600080516020610e8a8339815191520190602083106107b4575b601f0160051c600080516020610e8a83398151915201905b8181106107a85750610552565b6000815560010161079b565b600080516020610e8a8339815191529150610783565b60405162461bcd60e51b81526020600482015260136024820152721053149150511657d253925512505312569151606a1b6044820152606490fd5b61080e36610b38565b61081b8183859495610c70565b823b1591821561082f575b6101cc83610e4a565b604051630a85bd0160e11b81523360048201526001600160a01b039182166024820152604481019290925260806064830152600060848301819052919360209350849260a4928492165af18015610282576101cc916000916108a7575b506001600160e01b031916630a85bd0160e11b148280610826565b6108c0915060203d60201161027b5761026d8183610b72565b8261088c565b6101cc6108d236610b38565b91610c70565b6040366003190112610114576108ec610b0c565b6024359081600052600260205260018060a01b036040600020541690813314801561096f575b61091b90610c33565b600083815260046020526040812080546001600160a01b0319166001600160a01b039390931692831790559091907f8c5be1e5ebec7d5bd14f71427d1e84f3dd0314c0f7b2291e5b200ac8c7c3b9259080a4005b50600082815260056020908152604080832033845290915290205460ff16610912565b34610114576020366003190112610114576004356000526004602052602060018060a01b0360406000205416604051908152f35b3461011457600036600319011261011457604051600080546109e781610bf9565b80845290600181169081156103cb5750600114610a0e576103798361036581850382610b72565b6000808052600080516020610e8a833981519152939250905b808210610a3f57509091508101602001610365610355565b919260018160209254838588010152019101909291610a27565b34610114576020366003190112610114576004359063ffffffff60e01b8216809203610114576020916301ffc9a760e01b8114908115610ab3575b8115610aa2575b5015158152f35b635b5e139f60e01b14905083610a9b565b6380ac58cd60e01b81149150610a94565b60005b838110610ad75750506000910152565b8181015183820152602001610ac7565b90602091610b0081518092818552858086019101610ac4565b601f01601f1916010190565b600435906001600160a01b038216820361011457565b602435906001600160a01b038216820361011457565b6060906003190112610114576004356001600160a01b038116810361011457906024356001600160a01b0381168103610114579060443590565b90601f8019910116810190811067ffffffffffffffff8211176106ce57604052565b92919267ffffffffffffffff82116106ce5760405191610bbe601f8201601f191660200184610b72565b829481845281830111610114578281602093846000960137010152565b9080601f8301121561011457816020610bf693359101610b94565b90565b90600182811c92168015610c29575b6020831014610c1357565b634e487b7160e01b600052602260045260246000fd5b91607f1691610c08565b15610c3a57565b60405162461bcd60e51b815260206004820152600e60248201526d1393d517d055551213d49256915160921b6044820152606490fd5b6000838152600260205260409020546001600160a01b039182169291168203610df8576001600160a01b0316908115610dbf578033148015610d9c575b8015610d7c575b610cbd90610c33565b806000526003602052604060002080548015610d6657600019019055816000526003602052604060002080546000198114610d665760010190558260005260026020526040600020826bffffffffffffffffffffffff60a01b82541617905582600052600460205260406000206bffffffffffffffffffffffff60a01b81541690557fddf252ad1be2c89b69c2b068fc378daa952ba7f163c4a11628f55a4df523b3ef600080a4565b634e487b7160e01b600052601160045260246000fd5b506000838152600460205260409020546001600160a01b03163314610cb4565b50600081815260056020908152604080832033845290915290205460ff16610cad565b60405162461bcd60e51b81526020600482015260116024820152701253959053125117d49150d25412515395607a1b6044820152606490fd5b60405162461bcd60e51b815260206004820152600a60248201526957524f4e475f46524f4d60b01b6044820152606490fd5b9081602091031261011457516001600160e01b0319811681036101145790565b15610e5157565b60405162461bcd60e51b815260206004820152601060248201526f155394d0519157d49150d2541251539560821b6044820152606490fdfe290decd9548b62a8d60345a988386fc84ba6bc95484008f6362f93160ef3e563b10e2d527612073b26eecdfd717e6a320cf44b4afac2b0732d9fcbe2b7fa0cf6a2646970667358221220b33176870f07cecf59243899e769c3d3586dc8eb3a32848908959d69d98954d764736f6c634300081a0033","linkReferences":{}},"methodIdentifiers":{"approve(address,uint256)":"095ea7b3","balanceOf(address)":"70a08231","getApproved(uint256)":"081812fc","initialize(string,string)":"4cd88b76","isApprovedForAll(address,address)":"e985e9c5","name()":"06fdde03","ownerOf(uint256)":"6352211e","safeTransferFrom(address,address,uint256)":"42842e0e","safeTransferFrom(address,address,uint256,bytes)":"b88d4fde","setApprovalForAll(address,bool)":"a22cb465","supportsInterface(bytes4)":"01ffc9a7","symbol()":"95d89b41","tokenURI(uint256)":"c87b56dd","transferFrom(address,address,uint256)":"23b872dd"},"id":21}