{"abi":[{"type":"constructor","inputs":[],"stateMutability":"nonpayable"},{"type":"function","name":"createIdentity","inputs":[{"name":"_id","type":"string","internalType":"string"},{"name":"_name","type":"string","internalType":"string"},{"name":"_dateOfBirth","type":"string","internalType":"string"},{"name":"_placeOfBirth","type":"string","internalType":"string"}],"outputs":[],"stateMutability":"nonpayable"},{"type":"function","name":"getIdentity","inputs":[{"name":"_user","type":"address","internalType":"address"}],"outputs":[{"name":"_id","type":"string","internalType":"string"},{"name":"_name","type":"string","internalType":"string"},{"name":"_dateOfBirth","type":"string","internalType":"string"},{"name":"_placeOfBirth","type":"string","internalType":"string"}],"stateMutability":"view"},{"type":"function","name":"updateIdentity","inputs":[{"name":"_user","type":"address","internalType":"address"},{"name":"_id","type":"string","internalType":"string"},{"name":"_name","type":"string","internalType":"string"},{"name":"_dateOfBirth","type":"string","internalType":"string"},{"name":"_placeOfBirth","type":"string","internalType":"string"}],"outputs":[],"stateMutability":"nonpayable"},{"type":"event","name":"IdentityCreated","inputs":[{"name":"user","type":"address","indexed":true,"internalType":"address"},{"name":"id","type":"string","indexed":false,"internalType":"string"},{"name":"name","type":"string","indexed":false,"internalType":"string"},{"name":"dateOfBirth","type":"string","indexed":false,"internalType":"string"},{"name":"placeOfBirth","type":"string","indexed":false,"internalType":"string"}],"anonymous":false},{"type":"event","name":"IdentityUpdated","inputs":[{"name":"user","type":"address","indexed":true,"internalType":"address"},{"name":"id","type":"string","indexed":false,"internalType":"string"},{"name":"name","type":"string","indexed":false,"internalType":"string"},{"name":"dateOfBirth","type":"string","indexed":false,"internalType":"string"},{"name":"placeOfBirth","type":"string","indexed":false,"internalType":"string"}],"anonymous":false},{"type":"error","name":"IdentityAlreadyExists","inputs":[]},{"type":"error","name":"IdentityNotFound","inputs":[{"name":"user","type":"address","internalType":"address"}]}],"bytecode":{"object":"0x60808060405234602757600080546001600160a01b03191633179055611015908161002d8239f35b600080fdfe608080604052600436101561001357600080fd5b60003560e01c9081632fea7b8114610c9457508063b39e31a5146106b95763f876d1e31461004057600080fd5b346106b45760a03660031901126106b457610059610d8b565b6024356001600160401b0381116106b457610078903690600401610de2565b6044356001600160401b0381116106b457610097903690600401610de2565b9290936064356001600160401b0381116106b4576100b9903690600401610de2565b6084929192356001600160401b0381116106b4576100db903690600401610de2565b60005490949193906001600160a01b031633036106635760018060a01b031696876000526001602052610112604060002054610e0f565b1561064e57604051986101248a610e49565b61012f368989610f29565b8a5261013c368383610f29565b99602081019a8b5261014f368686610f29565b60408201908152610161368989610f29565b9b606083019c8d528b6000526001602052604060002092518051906001600160401b0382116103f55781906101968654610e0f565b601f81116105fb575b50602090601f83116001146105965760009261058b575b50508160011b916000199060031b1c19161783555b51805160018401916001600160401b0382116103f55781906101ed8454610e0f565b601f8111610538575b50602090601f83116001146104d3576000926104c8575b50508160011b916000199060031b1c19161790555b51805160028301916001600160401b0382116103f5576102428354610e0f565b601f8111610480575b50602090601f8311600114610416576003949392916000918361040b575b50508160011b9160001990861b1c19161790555b019951998a516001600160401b0381116103f55761029b8254610e0f565b601f81116103ad575b506020601f821160011461031b57908061030b99989796959493927f88f89ff6590cd0ad5b8e46305b8232d75b5e831ee5691b1a26b0f9e1653bf55e9d9e600092610310575b50508160011b916000199060031b1c19161790555b60405198899889610f90565b0390a2005b0151905038806102ea565b601f1982169083600052806000209160005b81811061039557509183917f88f89ff6590cd0ad5b8e46305b8232d75b5e831ee5691b1a26b0f9e1653bf55e9e9f61030b9c9b9a99989796956001951061037c575b505050811b0190556102ff565b015160001960f88460031b161c1916905538808061036f565b8f83015184556001909301926020928301920161032d565b826000526020600020601f830160051c810191602084106103eb575b601f0160051c01905b8181106103df57506102a4565b600081556001016103d2565b90915081906103c9565b634e487b7160e01b600052604160045260246000fd5b015190503880610269565b90601f1983169184600052816000209260005b818110610468575091600193918560039897969410610450575b505050811b01905561027d565b015160001983881b60f8161c19169055388080610443565b92936020600181928786015181550195019301610429565b836000526020600020601f840160051c810191602085106104be575b601f0160051c01905b8181106104b2575061024b565b600081556001016104a5565b909150819061049c565b01519050388061020d565b60008581528281209350601f198516905b8181106105205750908460019594939210610507575b505050811b019055610222565b015160001960f88460031b161c191690553880806104fa565b929360206001819287860151815501950193016104e4565b909150836000526020600020601f840160051c81019160208510610581575b90601f859493920160051c01905b81811061057257506101f6565b60008155849350600101610565565b9091508190610557565b0151905038806101b6565b60008781528281209350601f198516905b8181106105e357509084600195949392106105ca575b505050811b0183556101cb565b015160001960f88460031b161c191690553880806105bd565b929360206001819287860151815501950193016105a7565b909150856000526020600020601f840160051c81019160208510610644575b90601f859493920160051c01905b818110610635575061019f565b60008155849350600101610628565b909150819061061a565b8763e9dba27360e01b60005260045260246000fd5b60405162461bcd60e51b8152602060048201526024808201527f4f6e6c79206f6666696365722063616e20706572666f726d20746869732061636044820152633a34b7b760e11b6064820152608490fd5b600080fd5b346106b45760803660031901126106b4576004356001600160401b0381116106b4576106e9903690600401610de2565b906024356001600160401b0381116106b457610709903690600401610de2565b926044356001600160401b0381116106b457610729903690600401610de2565b906064356001600160401b0381116106b457610749903690600401610de2565b929091336000526001602052610763604060002054610e0f565b610c83576040519761077489610e49565b61077f36878a610f29565b895261078c368289610f29565b9860208101998a5261079f368585610f29565b604082019081526107b1368888610f29565b9a606083019b8c52336000526001602052604060002092518051906001600160401b0382116103f55781906107e68654610e0f565b601f8111610c30575b50602090601f8311600114610bcb57600092610bc0575b50508160011b916000199060031b1c19161783555b51805160018401916001600160401b0382116103f557819061083d8454610e0f565b601f8111610b6d575b50602090601f8311600114610b0857600092610afd575b50508160011b916000199060031b1c19161790555b51805160028301916001600160401b0382116103f5576108928354610e0f565b601f8111610ab5575b50602090601f8311600114610a4b5760039493929160009183610a40575b50508160011b9160001990861b1c19161790555b0198519889516001600160401b0381116103f5576108eb8254610e0f565b601f81116109f8575b506020601f821160011461096757908061030b989796959493927f3d9cb59a5e7ea15489b16dfe5891aa591d68ca2afbb2506f282f574c0824b1f59c9d60009261095c575b50508160011b916000199060031b1c19161790555b604051978897339b89610f90565b015190508d80610939565b601f1982169083600052806000209160005b8181106109e057509183917f3d9cb59a5e7ea15489b16dfe5891aa591d68ca2afbb2506f282f574c0824b1f59d9e61030b9b9a9998979695600195106109c7575b505050811b01905561094e565b015160001960f88460031b161c191690558d80806109ba565b8e830151845560019093019260209283019201610979565b826000526020600020601f830160051c81019160208410610a36575b601f0160051c01905b818110610a2a57506108f4565b60008155600101610a1d565b9091508190610a14565b015190508e806108b9565b90601f1983169184600052816000209260005b818110610a9d575091600193918560039897969410610a85575b505050811b0190556108cd565b015160001983881b60f8161c191690558e8080610a78565b92936020600181928786015181550195019301610a5e565b836000526020600020601f840160051c81019160208510610af3575b601f0160051c01905b818110610ae7575061089b565b60008155600101610ada565b9091508190610ad1565b015190508e8061085d565b60008581528281209350601f198516905b818110610b555750908460019594939210610b3c575b505050811b019055610872565b015160001960f88460031b161c191690558e8080610b2f565b92936020600181928786015181550195019301610b19565b909150836000526020600020601f840160051c81019160208510610bb6575b90601f859493920160051c01905b818110610ba75750610846565b60008155849350600101610b9a565b9091508190610b8c565b015190508e80610806565b60008781528281209350601f198516905b818110610c185750908460019594939210610bff575b505050811b01835561081b565b015160001960f88460031b161c191690558e8080610bf2565b92936020600181928786015181550195019301610bdc565b909150856000526020600020601f840160051c81019160208510610c79575b90601f859493920160051c01905b818110610c6a57506107ef565b60008155849350600101610c5d565b9091508190610c4f565b6335a081ab60e11b60005260046000fd5b346106b45760203660031901126106b4576001600160a01b03610cb5610d8b565b1690816000526001602052604060002091610ccf82610e49565b610cd883610e85565b8252610ce660018401610e85565b9160208101928352610d0d6003610cff60028701610e85565b956040840196875201610e85565b916060820192835281515115610d77575092610d65610d7392610d57610d49965195519351915193604051978897608089526080890190610da1565b908782036020890152610da1565b908582036040870152610da1565b908382036060850152610da1565b0390f35b63e9dba27360e01b60005260045260246000fd5b600435906001600160a01b03821682036106b457565b919082519283825260005b848110610dcd575050826000602080949584010152601f8019910116010190565b80602080928401015182828601015201610dac565b9181601f840112156106b4578235916001600160401b0383116106b457602083818601950101116106b457565b90600182811c92168015610e3f575b6020831014610e2957565b634e487b7160e01b600052602260045260246000fd5b91607f1691610e1e565b608081019081106001600160401b038211176103f557604052565b90601f801991011681019081106001600160401b038211176103f557604052565b9060405191826000825492610e9984610e0f565b8084529360018116908115610f075750600114610ec0575b50610ebe92500383610e64565b565b90506000929192526020600020906000915b818310610eeb575050906020610ebe9282010138610eb1565b6020919350806001915483858901015201910190918492610ed2565b905060209250610ebe94915060ff191682840152151560051b82010138610eb1565b9291926001600160401b0382116103f55760405191610f52601f8201601f191660200184610e64565b8294818452818301116106b4578281602093846000960137010152565b908060209392818452848401376000828201840152601f01601f1916010190565b969492610fce94610fb2610fc093610fdc9b999560808c5260808c0191610f6f565b9189830360208b0152610f6f565b918683036040880152610f6f565b926060818503910152610f6f565b9056fea264697066735822122043f161f6d937814ff809e7be4749d8f18770ea60ca2b2eec112f6bd834c0db2c64736f6c634300081a0033","linkReferences":{}},"methodIdentifiers":{"createIdentity(string,string,string,string)":"b39e31a5","getIdentity(address)":"2fea7b81","updateIdentity(address,string,string,string,string)":"f876d1e3"},"id":23}